:100000000C9434000C9451000C9451000C94510049
:100010000C9451000C9451000C9451000C9451001C
:100020000C9451000C9451000C9451000C9451000C
:100030000C9451000C9451000C9451000C945100FC
:100040000C9451000C9451000C9451000C945100EC
:100050000C9451000C9451000C9451000C945100DC
:100060000C9451000C94510011241FBECFEFD8E026
:10007000DEBFCDBF11E0A0E0B1E0E6E1F2E002C0FA
:1000800005900D92A030B107D9F711E0A0E0B1E0E2
:1000900001C01D92A730B107E1F70E949F000C94A8
:1000A00009010C9400001092C50087E68093C400FB
:1000B00088E18093C10086E08093C200089580911A
:1000C000C00087FFFCCF8091C60008959091C000CA
:1000D00095FFFCCF8093C6000895CF93DF93EC018A
:1000E00002C00E94660089918823D9F7DF91CF91E1
:1000F0000895EAE7F0E0808187608083ACE7B0E0B4
:100100008C9180648C9380818068808380818064FE
:100110008083089590917C008F70907F892B8093CD
:100120007C0080917A00806480937A0080917A00CC
:1001300086FDFCCF809178009091790008950E940F
:1001400053000E94790080E00E948A009093010190
:100150008093000162E071E04AE050E00E94C40038
:1001600082E091E00E946D008DE00E9466008AE0CE
:100170000E9466008FEF99E6A8E181509040A04070
:10018000E1F700C00000DFCFFB019F01E89442309F
:10019000C4F04532B4F44A3029F497FB1EF490952C
:1001A00081959F4F642F77270E94F500805D8A33E9
:1001B0000CF0895D8193CB010097A1F716F45DE205
:1001C00051931082C9010C94E500DC01FC01672FFA
:1001D00071917723E1F7329704C07C916D9370831E
:1001E0006291AE17BF07C8F30895AA1BBB1B51E16C
:1001F00007C0AA1FBB1FA617B70710F0A61BB70B97
:10020000881F991F5A95A9F780959095BC01CD013B
:060210000895F894FFCFF1
:00000001FF
